:1000000000800020BD010000750500002D050000E6
:100010002D0500002D0500002D0500002D05000018
:100020002D0500002D0500002D05000075050000C0
:10003000750500002D050000611600006516000022
:1000400075050000750500007505000075050000C8
:1000500075050000750500007505000075050000B8
:1000600075050000750500007505000075050000A8
:100070007505000075050000750500007505000098
:100080007505000075050000750500007505000088
:100090007505000075050000750500007505000078
:1000A0007505000075050000750500007505000068
:1000B0007505000075050000750500007505000058
:1000C0007505000075050000750500007505000048
:1000D0007505000075050000750500007505000038
:1000E0007505000075050000750500007505000028
:1000F0007505000075050000750500007505000018
:100100007505000075050000750500007505000007
:1001100075050000750500007505000075050000F7
:1001200075050000750500007505000075050000E7
:1001300075050000750500007505000075050000D7
:1001400075050000750500007505000075050000C7
:1001500075050000750500007505000075050000B7
:1001600075050000190B00007505000075050000FD
:100170007505000075050000750500007505000097
:100180007505000075050000750500007505000087
:100190007505000075050000750500007505000077
:1001A0007505000075050000750500007505000067
:1001B000750500007505000075050000564B4CF2F2
:1001C000205210B51A804DF628121A8000BF00BFC9
:1001D00000F0D4F9514B4FF010621A60504A9A6007
:1001E000504ADA60504A136813F4807304D14F49BF
:1001F0000B604FF4A85313604D4B1A78110703D5C9
:100200001A7842F008021A704A4B4B492A221A7097
:100210004A4A4B4B8B4204D252F8040F43F8040B6A
:10022000F8E7484B484900228B4202D243F8042B9E
:10023000FAE74649464A002352F8230041F82300D2
:1002400001336F2BF8D1434B434A802103F8011B44
:100250009342FBD1414B3D4A1A60414B8A221A70AE
:10026000A3F5805324225A70A0221A709A7992071B
:10027000FCD59A79D406FCD43A4A937903F00C035E
:10028000082B384BF9D105221A7143225A719A79F9
:100290009006FCD5334A9179324B4906FBD5324A58
:1002A0004FF0817111600521516020221A709A79F6
:1002B00002F00C020C2AFAD12C4B2D4A1A602D4B5D
:1002C0002D4A1A6000225A60072243F8042C2B4A58
:1002D000C3F80C2D62B600F029FB144B1B68DA073B
:1002E00005D5274800F0B0F9264B274A1A60274B5E
:1002F0001B785B0609D5234C234B22689A4204D114
:100300001F4800F0A1F90023236000F03DF901F03F
:10031000CFFA00F003F9FEE70E20054030800440DC
:10032000823F04000100002B10D0034014D0034092
:1003300002D0074000E0074000E7FF1F6C1B0000F1
:100340002087FF1F00E7FF1F50E8FF1F0082FF1FED
:100350000000000000E400E05FE400E008ED00E0E1
:1003600000500640004006404480044004800440A1
:10037000C010050014E000E03F190100000020203B
:100380004E14F8611CE00340A5C3945A00F00740E6
:10039000FFFFFFFFFFFFFFFFFFFFFFFFFFFFFFFF6D
:1003A000FFFFFFFFFFFFFFFFFFFFFFFFFFFFFFFF5D
:1003B000FFFFFFFFFFFFFFFFFFFFFFFFFFFFFFFF4D
:1003C000FFFFFFFFFFFFFFFFFFFFFFFFFFFFFFFF3D
:1003D000FFFFFFFFFFFFFFFFFFFFFFFFFFFFFFFF2D
:1003E000FFFFFFFFFFFFFFFFFFFFFFFFFFFFFFFF1D
:1003F000FFFFFFFFFFFFFFFFFFFFFFFFFFFFFFFF0D
:10040000FFFFFFFFFFFFFFFFFFFFFFFFDEF9FFFF23
:1004100010B5054C237833B9044B13B10448AFF33E
:1004200000800123237010BD00E7FF1F00000000C3
:10043000701B0000084B10B51BB108490848AFF30A
:1004400000800848036803B910BD074B002BFBD0A0
:10045000BDE81040184700BF0000000004E7FF1F80
:10046000701B000000E7FF1F0000000070B5124C79
:100470004FF4047604F5804554F8040F01F0F2F9C6
:100480000146282000F0F4F83346013BFDD1AC4290
:10049000F2D10A4C0A4E4FF4047554F8040F01F0DF
:1004A000E1F90146282000F0E3F82B46013BFDD19D
:1004B000B442F2D170BD00BF20A2FF1F1C87FF1FF6
:1004C00020A2FF1FF8B50C2000F0D0F90E480F4A0B
:1004D00004680F4D0F4F40F2EE2613783BB12B7896
:1004E000DB0704D5036839685B1A0E2B0AD803684A
:1004F00011781B1B19B1B3F5FA6FEED9F8BDB342F1
:10050000EBD9F8BDF8BD00BF1CE7FF1F00E8FF1FD7
:1005100014E8FF1F4CE8FF1FFFF7A8BF08B5FFF75F
:10052000D1FFFFF7F9FF01F003F8FAE708B5104C27
:1005300008E0236859050DD423681A050FD42368F1
:10054000DB0411D423685803F3D500F0E5FA2368DF
:100550005905F1D500F00EF823681A05EFD500F023
:1005600009F82368DB04EDD500F004F8EAE700BFE2
:100570003480044008B5FFF7D9FF00BF014B1022BB
:100580001A80704700200540704700BF10B40F4B21
:1005900053F8302092F880422CB1012369B182F8DF
:1005A000803010BC704703EBC0035B681A6841B928
:1005B00022F002021A6010BC704782F8003110BCB1
:1005C000704742F003021A6010BC7047EC1900003B
:1005D0001C4A02EBC00301295B6811D004291BD01F
:1005E00052F83000002280F8802229B1022920D060
:1005F000032922D01A6070474FF480721A60704746
:1006000052F830004FF4A27280F880121A601A6813
:1006100022F020021A60704752F830104FF4A27294
:10062000012081F880021A601A6842F020021A60E4
:10063000704740F203121A6070474FF481721A60DB
:10064000704700BFEC19000030B4054B054D064C57
:10065000002210211A602A602060196030BC7047A7
:1006600014D0034004D0034000D00340704700BFC3
:10067000282838B52ED0002904464FDD5F4B1B7863
:10068000012505FA03F28A4202D8212837D938BD5C
:100690000338C2B2012A3AD9202C4AD0192C48D0AA
:1006A000574A126802FB011222FA03F31D2800F2D6
:1006B0009B80DFE800F0928B847D9999766F999901
:1006C0009999999999999968615A53994C999999D5
:1006D00099999945494B1B780B2B08D90C2B1CBFBA
:1006E0000C3B19410846BDE8384001F033B8C3F16E
:1006F0000C0399400846BDE8384001F02BB8294664
:10070000FFF744FF2946BDE83840FFF761BF3D4A87
:10071000126802FB011222FA03F3C7E72128B6D8B8
:100720000021FFF733FF20460121BDE83840FFF7E5
:100730004FBF354A126802FB011222FA03F3B5E7F4
:100740003249334A0B604FF45173136038BD31495D
:10075000314A0B604FF45173136038BD2F49304A52
:100760000B6040F24443136038BD2E492E4A0B60A3
:1007700040F24443136038BD2C492D4A0B6040F2CF
:100780004443136038BD2B492B4A0B6040F244436D
:10079000136038BD29492A4A0B6040F24443136074
:1007A00038BD2849284A0B6040F24443136038BDE5
:1007B0002649274A0B6040F24443136038BD25495F
:1007C000254A0B6040F24443136038BD2349244A54
:1007D0000B604FF45173136038BD2249224A0B60FD
:1007E0004FF45173136038BD212C3FF650AF7F2971
:1007F000D4BF00210121204693E700BF24E2FF1F60
:10080000088003400890034008800B4010800B4094
:1008100048A0044018800B404CA0044018800340BE
:1008200008B004401080034004B0044040800340FE
:1008300018C004403880034014C00440288003409E
:1008400010B00440208003400CB0044030800340CE
:1008500010C00440488003401CC00440189003406E
:1008600034900440109003403090044038B1102878
:1008700028BF1020044AC3B2107813707047024A90
:10088000012310781370704724E2FF1F2DE9F8430D
:10089000054672B6214F224B224A1B683C681268FB
:1008A00062B6520102D5322B88BF0134A5B3C3F51D
:1008B0008C331D4EDFF86890DFF8688003F23F1339
:1008C0004FF47A72A6FB031302FB04F404EB131437
:1008D00072B6D9F800103A68D8F800E062B6C1F5EF
:1008E0008C3303F23F13A6FB03031EF0806FC4EBAF
:1008F00013134FF47A7002D0322988BF013200FB03
:100900000233B3F57A7F04D3013D05D004F57A7440
:10091000DEE700F00DFEDBE7BDE8F8831CE7FF1F14
:1009200018E000E004ED00E0398EE338F8B52E4B16
:100930002E49DFF8D4E0DFF8D4C02D4E2D4D2E4CDB
:100940002E4A2F4F4FF4000018604FF0807018604F
:100950004FF0007018604FF0806018604FF000603A
:10096000186000200860282348F6FF71CCF80010BA
:10097000CEF80030336013602B6023603B60B362BD
:100980009362092245F8242CC4F8D80F05F57F6539
:10099000C7F8D41F07F5FF2707F5FA67C6F8F83F31
:1009A0002B6006F5FF26C4F8D42F05F5FD2504F5C8
:1009B000FF24386006F2F4761248316005F5FF65D1
:1009C00004F5FD642B602360026000F053FEFFF726
:1009D0004DFE1420FFF75AFF00F0D8FC4FF48C7046
:1009E000BDE8F840FFF752BF08E100E00480034093
:1009F00014800340248003402C8003401C8003406B
:100A00003480034000800B400C800340088003408A
:100A1000F0B472B61A491B4E012311F8014B194F5D
:100A20009A00240742F0010505D556F8324064B11A
:100A300056F83520BAB10133052BEED162B6124B10
:100A400000221A70F0BC00F01BBD0F4C0F4D217836
:100A500007EB4313083001395860217047F83250D2
:100A600062B6F0BC7047084A0949137807EBC50421
:100A70000830013B6060137047F8351062B6F0E74C
:100A8000FC1A00000080FF1FF5E7FF1F88004000F0
:100A9000C8004000431E032B1DD81B4A400140F0F4
:100AA000100030B4104472B6184CE25C032A1BD814
:100AB000DFE802F00212151703220D88E25410F04D
:100AC000080F14BFC823882343EA05430831416057
:100AD000036062B630BC704708300222EDE70522A1
:100AE000EBE708300422E8E7094A52F8230038B15E
:100AF000084A52F82300416042F8231062B6E9E741
:100B000042F82310034AF7E70080FF1F04E8FF1FA5
:100B1000CCE7FF1FDCE7FF1F2DE9F04FDFF814B330
:100B2000DFF814A387B044E0AD4F4FEA930807EB1A
:100B3000C809013ED9F8042003F00803F6B2A2F177
:100B4000080003F0FF04002B40F0038157F8383011
:100B50001B0C99B222F8081C002B00F0F180A14B6D
:100B600022F8064C42F8044C53F82620002A00F0E4
:100B70006C819D4D55F8263058609C4C45F82600F8
:100B800034F81630194424F8161000F059FC0028E7
:100B900000F05481964A974B19F0080F00F10800B5
:100BA00018BF1346C9F8040047F8383008238BF8FB
:100BB00000309BF80040E4B260071BD58E4B1B78D9
:100BC000ABB18E490A7802F0FF032AB1013BDBB2D8
:100BD0000B70002B00F0B58389490A7802F0FF03FF
:100BE0002AB1013BDBB20B70002B00F0F68004232E
:100BF0008BF8003004F0080303F0FF02002B00F034
:100C0000D5809AF80030DBB21E098DD19C08744F54
:100C100057F8342007EBC401C2F38302013A496854
:100C20000C2A7ED8DFE802F081817D7D7D7D7D7D8F
:100C3000427D7D7D07000868724B734D01936C4BBC
:100C40004A68724E47F8343081B240F281646D4B8D
:100C50006A60286000220120A1423A611A60BA61EC
:100C6000307000F2F680B1F5D06F80F0E882B1F517
:100C7000817F00F0D38200F2D881802900F04D817D
:100C8000822940F09282A988614B01F07F010429FA
:100C900000F28C825F4C89000B44227062701A78DB
:100CA000930740F13883207002203AE1554B0193BD
:100CB0001A6862B3584B5949544E18880C7896F804
:100CC00000E04028054684F0010C28BF402544F090
:100CD0000204BEF1000F81F800C0A0EB050007EB95
:100CE000C40C0CBF8821C82180B28EF0010E41EAED
:100CF0000541CCF80420188086F800E02A4447F823
:100D0000341010B9402D18BF0022019B1A603E4BD1
:100D10001A88B2F5A06F04D100219A785970404B1F
:100D20001A70404A0123137040E7374A158842F28F
:100D30002100854200F052812D4A47F83420F0E727
:100D40002B4A2C4B19F0080F18BF134647F83830C0
:100D50002CE700F095FB344A344952F82630002B3A
:100D600000F02D8158688C5D42F8260003F10802DE
:100D7000C9F80420032C05D8DFE804F0120F15028F
:100D800004228A551A8819F0080F0CBF8823C8233B
:100D900043EA024347F8383008E702228A55F1E770
:100DA00003228A55EEE705228A55EBE7E00700F1BA
:100DB0007881210600F1A281A20706D51C4A1D49AF
:100DC00013780220DBB213700870E30602D5194BCA
:100DD00010221A7007B0BDE8F08F00F085FB06E71F
:100DE0000080FF1F78E7FF1F24E7FF1F3CE8FF1F7D
:100DF000C80040008800400000E8FF1F89E7FF1F8F
:100E000008E8FF1F20E7FF1FECE7FF1F88E7FF1F31
:100E1000C0200740F8E7FF1F34E7FF1FF4E7FF1F7C
:100E20009820074094200740CCE7FF1F04E8FF1FED
:100E3000882007408020074090200740B74A47F8A5
:100E40003800137801331370B0E643F82600B44D30
:100E500093E642F22104A14200F0AD8000F20E813F
:100E6000B1F5086F00F05481B1F5106F40F09D812D
:100E7000AC4AA9781170AC4D042402E00134142C62
:100E80000CD057F834301906F8D505EBC4030134FB
:100E90005868083800F0F4FA142CF2D1A349A44B96
:100EA000A44A0291A449A54C9D4D039405964FF088
:100EB000000988461C4616460495206828B14568F6
:100EC00000F0DEFA2846002DF9D100232360049BB0
:100ED00030681A46002342F8293028B1456800F0EE
:100EE000CFFA2846002DF9D100223260029A98F8F4
:100EF00000301146002241F8042B039A0291023B74
:100F00004FF0000122F81910032B00F2B481DFE842
:100F100013F0E201AE01E201AE01894C0220227021
:100F20006270EA88824280F00D8286490D78402AFC
:100F300045F0020E944607EBCE0028BF4FF0400C60
:100F400004EB0C0344600293CCEB02004FEA0C4824
:100F50004FF001090022C82444EA080385F0010487
:100F600047F83E3032700C70DFF8BCE1764BDFF8AA
:100F7000D481002840F02081BCF1400F1BD144F007
:100F8000020407EBC403029FDFF89CE15F60002AC4
:100F900040F02781020442F0880286F800900D702C
:100FA00007444EF834203B46402804D10020674ACD
:100FB000019910800B60664A01231370B1E68B5DC6
:100FC000032B00F2248101A252F823F0AD0B0000A4
:100FD000AD0B0000F1100000F7100000928862B91C
:100FE0005C4ACD1D11F8013B02F8013F8D42F9D159
:100FF000594A1268862A00F0C9805249524E087830
:10100000327840F0020580F00100087007EBC5015E
:10101000002A4FF00000486082F001020CBF8821D6
:10102000C82147F83510327086E640F2023291420C
:1010300040F0B080A98801F07F01042900F2B5805A
:101040006A88002A40F0B180444C89000C448146F3
:10105000217841F0020121700020029080468446F0
:10106000044638490D7845F0020E07EBCE03B9F17E
:10107000000F5C600CBF8824C8246DE742F2212475
:10108000A14240F08E80A988002940F04281344B73
:10109000344A354C1B68AD78136081460A4625708A
:1010A000DAE72B49204B3148264EDFF8B0C0304DEF
:1010B000DFF8D4E02F4F02240C702F4C18605C60D6
:1010C00098602E48D8601A619A610D2332702C4CBA
:1010D0008CF800302B4EFF232B7001209F258EF8BB
:1010E00000303A7033702570087007B0BDE8F08F9B
:1010F00000238B555AE501238B5557E51749224BA1
:1011000080220D2008701A70A2077FF55EAE55E6AA
:10111000044A0B4C1278227003E700BFF5E7FF1F6B
:1011200024E7FF1F00E8FF1F0080FF1FDCE7FF1F11
:1011300078E7FF1FCCE7FF1F04E8FF1F3CE8FF1F15
:10114000F8E7FF1FF4E7FF1F88E7FF1F34E7FF1FE3
:101150009420074043E8FF1F44E8FF1FC0200740DA
:101160001CE7FF1F4CE8FF1F14E8FF1F880040002A
:10117000882007409820074038E7FF1F8CE7FF1FB3
:10118000842007408C20074080200740754A0F21AB
:10119000117032E7B1F5A06F07D100224FF00109BD
:1011A0005AE742F221329142F7D06F4B0F221A7068
:1011B0006E4A01231370B4E540287FF6E0AE44F098
:1011C00002040EEBC401029E4E60AAB183F80090A7
:1011D000674A88F800503346403840334EF8342090
:1011E000E5E6029B86F80090020442F0C8020D700A
:1011F00003444EF83420D7E683F80090029B5D4A02
:1012000088F80050403840334EF83420CFE619F0CB
:10121000080F0CBF022303238B55C7E4A98801F0F4
:101220007F010429C1D86A88002ABED14E4C8900AA
:101230000C448146217821F0020121700CE74E4ACE
:101240005468002CB1D06888B5F804E003E00C3293
:101250005468002CA9D013888342F8D15388734571
:10126000F5D1000A03280CBF2078108959E64FF009
:10127000010388F8003009F10109B9F1040F04F104
:10128000040406F1040608F101087FF416AE3B4B96
:10129000059E3B4DDFF8F080002018704FF00109EB
:1012A00018F8013B05F8043B1A0719D44FEA8904E2
:1012B00044F0020244F00304002347F8323047F8B8
:1012C0003430304B9D4209F10109E9D196F8009084
:1012D00089F00102C0E64FF0000388F80030CAE749
:1012E00000F0AEF818B307EB49134FEA8904083051
:1012F0005860204B47F8343000F0A2F868B144F051
:10130000010307EBC30208305060194A47F8332045
:10131000CEE78146A0E6022003E6184B44F0010226
:101320001B7847F83200154A01331370C0E7134B9E
:10133000124A1B784FEA8904013347F834001370CE
:10134000DAE700BE4028844628BF4FF0400C04EB8B
:101350000C03CCEB00004FEA0C48029300224FF044
:1013600001097EE689E7FF1FC0200740942007405F
:10137000C800400088004000001B0000F5E7FF1F88
:10138000C4200740D4200740FC1A00002DE9F0419A
:1013900000F000FA00231F491A4601EBC30041F890
:1013A00033200133142B42604FF000041948F4D16C
:1013B000194A1A4F13681A491A4D1B4EDFF874C0A8
:1013C000DFF874E0DFF8748043F480231360C0F327
:1013D00007233B70C0F307430B70000EFF2302F599
:1013E00028322870D4328CF80030104D8EF800303E
:1013F0000F483370012388F80030702681F8504080
:101400004FF40074102107F8183C2E70046011701E
:10141000BDE8F0810080FF1F348004409C2007401D
:10142000B0200740B42007401020074049E400E006
:1014300008E100E080200740882007409420074012
:1014400072B60D480268B2FA82F30B2B10DC4FF033
:101450000041D94022EA0102026062B6074803EB6C
:10146000C303DB00C2180021C15010465160704711
:1014700062B60020704700BF28E2FF1FBC83FF1F39
:101480000D4B0E4AC31AA2FB03231B090B2B0CD8CE
:101490000B4A127852B972B60A484FF000410268FE
:1014A00021FA03F31A43026062B67047064A1278C3
:1014B000002AF0D0FFF7ACBABC83FF1F398EE338A7
:1014C000F5E7FF1F28E2FF1F00E8FF1F044B054A56
:1014D0001B6890881BB11A885B88D31A1844704720
:1014E00010E8FF1F3CE8FF1F38B50E4B1B7873B99F
:1014F0000D4C216861B103F0FF054B880B8004207F
:10150000FFF7C8FA256038BD084B01221A7038BDB4
:10151000FFF796FF0028F7D00146BDE838400420C9
:10152000FFF7B8BA09E8FF1F0CE8FF1F08E8FF1F24
:101530002DE9F843314E337893B1314F3A787AB987
:101540000122D9073A7036D49A0719D400225B07D2
:101550003A7005D52B4B1A6812B1EFF305820AB128
:10156000BDE8F883EFF3108172B6186818B1264C05
:101570002278002A2ED00029F2D162B6BDE8F88385
:10158000DFF8908098F80020002ADFD0DFF88890FC
:10159000002405E0013498F80030E4B2A34212D9E7
:1015A00059F824502B6828461B6998470028F1D029
:1015B0002B699847EEE7FFF789FFC8B9134B1B78F3
:1015C0001BB93378C0E73378C0E7337803F0FE0304
:1015D0003370B9E745691D60012323705DB1AA61CD
:1015E00001B962B600254577836898472570B7E74B
:1015F00000F0CEF8E2E7064B1D60F1E72CE2FF1F9A
:1016000015E8FF1F24E8FF1F28E8FF1F2FE2FF1F38
:1016100020E8FF1F38E8FF1F2CE8FF1F70B5EFF32D
:10162000108272B60C4C206880B10C4E00254369C4
:10163000236073B19D6102B962B6457783689847AC
:10164000EFF3108272B620680028F0D102B962B6BA
:1016500070BD3360EFE700BF18E8FF1F1CE8FF1FF5
:10166000FFF7DCBF024A136801331360704700BF05
:101670001CE7FF1F30B42948294A2A4B2A4D602411
:10168000E121047011701B78284C082B30D00A2BF4
:101690002748284937D00C2B0CBF15223D22122396
:1016A0002A60236002600B60234B24491B78244A84
:1016B000BBB101230B601360224B23491B78234AE3
:1016C000012B26D9042B0FD9082B1ED9102B94BF20
:1016D000862387230B6013601D4B01221A7030BCD8
:1016E00070470B601360E7E784230B601360F3E738
:1016F00000F58E200F490830012213232A60236051
:1017000002600B60D0E71922F7E785230B601360B6
:10171000E2E780230B601360DEE700BF0040074074
:10172000014007402DE2FF1F08B003400CB003400A
:1017300008B00B400CB00B403AE8FF1F20B003404C
:1017400020B00B402EE2FF1F24B0034024B00B401A
:1017500039E8FF1F0A4A0B49136843F480531360AA
:101760000B7843B9084BC0221A70084B80F30C0069
:1017700000B218807047044B80221A70F5E700BF52
:101780002C8004403AE8FF1F21C00C4000C00C40F0
:10179000704700BF70B584B072B6194B194D1A4826
:1017A000702241260F2480211A702E701A46047070
:1017B000197013781B06FCD5144B186862B6144BCD
:1017C000144C984298BF00EB800001A998BF4000DC
:1017D0000A2200F021F801A92046002311F8012B6C
:1017E00001333AB10A2B20F8022FF7D116232370C8
:1017F00004B070BD5B00DBB2237004B070BD00BFED
:1018000000000240070002400600024008000240BB
:101810007F969800BCE2FF1FF0B44D1E2E460024B8
:1018200000E00134B0FBF2F302FB1300092800F1E1
:1018300030078ABF3730F8B2C0B206F8010F184639
:10184000002BEED10A1953704CB1107815F8016FC6
:1018500028700133E01A834202F80169F5DB08467B
:10186000F0BC70474FEA4002B2F1FE4F0FD34FF089
:101870009E03B3EB12620DD94FEA002343F00043FD
:1018800010F0004F23FA02F018BF404270474FF0AB
:101890000000704712F1610F01D1420205D110F032
:1018A000004008BF6FF0004070474FF000007047E5
:1018B00070B50F4E0F4D761BB61018BF002405D023
:1018C000013455F8043B9847A642F9D10A4E0B4D16
:1018D000761B00F041F9B61018BF002406D0013481
:1018E00055F8043B9847A642F9D170BD70BD00BFC2
:1018F000641B0000641B00006C1B0000641B0000E4
:10190000024B13B1024800F005B870470000000018
:1019100021190000002301461A46184600F014B8A9
:1019200038B5074D074C2C1BA41005D0013C55F8C9
:10193000043D9847002CF9D1BDE8384000F016B9B5
:1019400000000000000000002DE9F047254C25684C
:10195000D5F848410646884692469946C4B3606821
:101960001F2817DC431C76B104EB80050122C5F863
:1019700088A0D4F8881182401143022EC4F888113F
:10198000C5F808911ED00230636044F82080002022
:10199000BDE8F087144B03B34FF4C870AFF3008079
:1019A0000446D0B1D5F84831002780E88800C5F852
:1019B000484138460123C4F88871C4F88C71002E60
:1019C000E1D0D1E7D4F88C110A43C4F88C21DAE7CE
:1019D00005F5A674C5F84841C1E74FF0FF30BDE8F2
:1019E000F08700BF541B0000000000004008FE43C9
:1019F00040A004404408FE4344A004400018FE43B5
:101A000000C004403000FE43309004403400FE43E8
:101A1000349004401C18FE431CC004401018FE43C0
:101A200010C004400818FE4308C004400C18FE43D0
:101A30000CC004400C10FE430CB004401010FE43D8
:101A400010B004401810FE4318B004401C10FE43B0
:101A50001CB004401410FE4314B004400418FE43AC
:101A600004C004400010FE4300B004400008FE43E0
:101A700000A004400408FE4304A004400C08FE43F8
:101A80000CA004400808FE4308A004401418FE43BC
:101A900014C004401818FE4318C004400410FE434C
:101AA00004B004400810FE4308B004401400FE4394
:101AB000149004404C08FE434CA004400420FE4314
:101AC00004D004402410FE4324B004402010FE4300
:101AD00020B004402810FE4328B004402C10FE43E0
:101AE0002CB004400020FE4300D004404808FE43D0
:101AF00048A004401000FE43109004400015191542
:101B00000001000030E2FF1F120000000002000090
:101B10005CE2FF1F4300000000030000B8E2FF1F6B
:101B2000000000000103090444E2FF1F0000000060
:101B300002030904A0E2FF1F0000000003030904E0
:101B4000BCE2FF1F000000000000000000000000D9
:101B500000000000D8E2FF1FF8B500BFF8BC08BCC9
:0C1B60009E46704701190000350400008B
:041B6C00F8B500BF09
:101B70005696904482B88F44AA8B8F44FD88904437
:101B8000746B9244F7CA9344FDA1924439718E4418
:101B9000A17389441BC386442B69874446DE89446C
:101BA0008A268C444CBF8C4403788B44E67A894463
:101BB000FF46884434A88744315186448A4584448A
:101BC00027308244F19C7F44D10D7A44CF9D7644E6
:101BD0008F75774436817944C64F7844645A74448B
:101BE0004DFB704487467144555D7744DE21814446
:101BF0001E238644F62F8844A4EA8844AD098B440A
:101C0000BDA08D44C8678D4441DF8A4415DD8944F9
:101C100063038C44927E8E4457558E440E2E8B4423
:101C200039B8864439BF8244EB878044CB2F7F4448
:101C30008B587C4458AC7644B27F70443BCE6C44A5
:101C400094C26A4475266944B44E6844F0166844E8
:101C500014E16444A15D5C4458245344C945504494
:101C600099FB5544F00260444D2B6944BC6C6E44B2
:101C7000A1F06F44786770440735734425037944B5
:101C80009E198044F8E6834434808744AA8A8944B4
:101C9000919488445D3A854464D081449352804451
:101CA0009D6980445A0180441B167B44920473440E
:101CB0007C846B4423AF6544752361442DCB5F4422
:101CC00009126344923067446DA666444AEA61444F
:101CD0006F425E44E4945E440BB1624481836A4483
:101CE000C4DF744488F87C442C937F440B697E44A1
:101CF0004DBE7C444F6E7C4443E27E449E21824430
:101D0000D92A84442FA88244DD9D7B445DDA714446
:101D10005EA86D441EA26E4476C870446389704408
:101D20003BBD6C44E1266744E3A4624402926044F4
:101D300057265F44EE815C44C416594441C8574459
:101D400028EB584470325A4436095A44D4E4594472
:101D5000310A5B4469945B444E25594457635344AC
:101D6000CA134C44706C4644FB2A4644E17F4B4402
:101D7000CBE44F4416994C4497964244627A3944D6
:101D8000332137446E0A3B448E884044E24E43443C
:101D90001D674344C96044444023484441054C44C2
:101DA000D3214E441FC94E444D734D44B70348449C
:101DB0002804414436513E4417A84044B07341447E
:101DC000CB1E3C44C20D324443FA27443C592144C3
:101DD0008F9E20443D3B254453BB2C443ECF34448E
:101DE00040603C443DF3404474BC4144FC094244DF
:101DF000FE9B4544C0444A44B7F64B4487CB494414
:101E00009906464435724244501041440D8842447C
:101E1000CCC043447B4940444BFD3944D2AC3644AA
:101E2000F3F8374403B638444F4D3544A4FF2F44EC
:101E300028602D4493922F442A02354425B2394418
:101E400086263A44E78A364460E93144470D2F44F8
:101E50005F182E445CDA2E44CDCC2F44ABAE2E441A
:101E600011012A44CB482444EA132244B27C25447D
:101E7000DB192D44C61C3544B4E1384412C4354442
:101E8000FAB52E44AC9E2A4467882C4492E22F4433
:101E9000BC2C2F44CB4B2C44504A2D44C98D344488
:101EA0005F1E3E44C472454449424A44FB2D4E44A1
:101EB000C3745144FF5E514438B74D44E4DF4A4493
:101EC000D2934E4405EF5744E6445E448B9D5844FC
:101ED000A0864844A1A23844359F324402073544C5
:101EE00096E43644BB6F33444B3A2E44F3352C44CE
:101EF000B5BD2C442BC02C4466C72C447ED62F4441
:101F0000367036445D5D3E44E8FC454435574E44EA
:101F100037D7554451855844D1A35244BC02474455
:101F2000B4B23C443DDF38440D963A442BA43C44C3
:101F300086373A449A12324468672844E36423445B
:101F4000CA9824440AA327442C7D28445489284451
:101F500085922A4485742E44FB7532446758344474
:101F6000D89B314413C22944BFB822446D84234412
:101F70001CD02B44457E3344543B344461C82D442B
:101F8000CC37244465441D443AD81D4412F12544FD
:101F900093922F44412F34444C0B32447EF42B4413
:101FA0009A4F26443D3B25440EC32A448F75344442
:101FB0003C113D4452AF404452AF40449CB7414471
:101FC00032054744A8E84E44271A55441B7D574420
:101FD0006A6257446C01574430285744CBC5574474
:101FE000DF9257445264544478AC4C446F9B424453
:101FF0007DE93B443B503D4486FA454453435044BD
:102000001FCC5644DAB55844796F58443CB858440C
:102010000E1F5A442A5B5C44DFA65F447954644433
:10202000B44E68446A576744649460440D5E5A44F1
:1020300069945B44A53D6344D09B6A44392F6D4449
:1020400045BB6A44D9A664441EBE5E4446A85E44AD
:102050002A4D6444419B674492316344A7FB5A4430
:10206000FE5D5544A4BA53449A9A55446DE35A44CC
:10207000EB2561443BCB6444CC596744E5396E445D
:102080006F0B7A44FE95824420C285448E54874467
:102090009AE48844D83C8A440E4E8944B7E6844486
:1020A000731A7D447FE7724498D16D44DA6A6C44B8
:1020B000C31B6D447D556F44378F7144DE89734473
:1020C000CB4E7744EBCC7C4419877F44CF7E7E4453
:1020D00051EF7F4481F583440BE6874410E5864445
:1020E00039A68044CB6C734464576C44C33D6D4443
:1020F0000DF5714436C175446BDA7644C30D7544F1
:1021000027C170447FE46A44483966444C5A6544A8
:10211000908067449EC06844F8536644262D61440D
:1021200027FB5C44CD355B4494BC5A44D5A5594447
:10213000CC7557447B205444DE015044D7814D4434
:1021400096A94E449B795144362852448F0B5044F3
:10215000DD414C449BD84544FF983D44D52D3A443D
:1021600091C63F44519048446FAF4A44AFA545449F
:102170008A394144D00F4344C3824944AA764E442D
:102180004D624D449778464494263F44EFB93C4411
:10219000CA5040446EBC464454334C443A564D44B5
:1021A000837C4A449C774544E30B3F44499E364434
:1021B0007D043044161431449D6439443B2141442C
:1021C00097964244D5FE3D44E92936446FE62E44B5
:1021D0003ECC2C447AB53044A0D1344404B73444C6
:1021E00095133344677A344479C938443B503D44AD
:1021F000404240448CC740448F16404450104144F4
:1022000043A14344F70A4344B8013C44E8693244DB
:102210006BD72B4426F02944AC9E2A44CDFB2B449B
:102220003ECC2C4407142C4470D62A4421E02A4486
:102230003D3E2D4452CB3044B8FE3344C13F36447A
:102240008B363944D5FE3D44BB424344AEF545444C
:1022500039A34544CE814344668D404475793D445D
:10226000B8013C44C10F3E44D380424447D2464467
:102270002B674844BC02474414194544CF304744B7
:10228000095D4F4481B05A4455B9634480D46644D3
:10229000F4336344B7B85B44D3245644925D574447
:1022A000D8155D447CC15F44DEC45B44E8F155440D
:1022B0008BEE5444C6D75844B47A5C4452455C44CF
:1022C0003CB85844F03F54448AFB5044259951444B
:1022D000F980564406D15B44123F5D4469945B44E7
:1022E000A70C5B4458165B44181D584482AD5244F9
:1022F000834C52441C4E5B44AA2E6A441F337644DE
:1023000032717A44E01B7744A11270449C106944F6
:1023100050BA64448C826444260E6944B27F70448F
:10232000ABF1754499737544A3B16F44E5466A44B3
:102330005E87694470F86D44650A7444504D784472
:1023400033327A4488F87C44DAE98144BB268644F7
:1023500033D0874467518544E74F81447C5B7F4499
:1023600010FB804487CC824478EF83445BC3854470
:102370002EE288446ECA8B44B8C18C44B0498C4468
:1023800059EC8B44AF828C44ED028E4415B68F44D9
:10239000BB0990446D0B8E4479808B4464DB8B4485
:1023A00003608F4401C99144207D8F449B9C8A44E3
:1023B000FE7F884420AC8B44574E9244EF7599447D
:1023C000EDBE9D449EE89B441D169444141E8C440F
:1023D00099148B4482A99144302E9A441C219E4426
:1023E000C6BB9B44BA43964497569344BBF395446B
:1023F000BD7C9B444AE49E441DF99D44CAE29A4434
:10240000D7409844AC059744FE4A9644B98B94440F
:1024100002A1914447A08F44A23D9144DAAF954474
:102420005D289944181099441B9096447B13954459
:102430007A439744C1BC9C44BA06A24485CDA244C9
:102440001C219E44BA239844249696448D429B4472
:102450005B6AA144F2A7A244CE029E44C0EB98441A
:10246000303D98440E129B441FA99D44F45E9E4447
:102470002A5F9D4422189B447CAB984413319844B6
:10248000029399441AA09A44D8209A44834B9944C1
:10249000B8849844C2AA9644C6B89344CD6792447F
:1024A000CF089444EC1C9644AB3C954450BF9144F7
:1024B00021558F443B12904446D09144710391447E
:1024C0009ACC8C44F62F88445414874424D38A44ED
:1024D000EDF38F44712B91447B218D4480278844F8
:1024E0004A3687440CC68944851F8B44EC188844BF
:1024F000D911824430D27A4441507B4464D0814423
:10250000DBBA85448BEC854402D68344F7068244CB
:1025100037F6804445927E44DD8C7B4486377D448B
:102520006331824432F085444BD58644D29B834448
:102530006FFA794435ED6944EE815C44940D57445B
:10254000E5625A4415AF6044E8B4614457555B44B2
:102550006F9052448BDA4C4495E94A44FDAB4944B0
:10256000D35146449FF5404415053D4485583E44AB
:1025700095F742444462434424243A4422902A4436
:102580003AE91D4409E01B44067224447D26304488
:10259000C97C34446BD72B44C1981A441EC90B44E0
:1025A000F6EB074443640C44BCC50F4480DC0B4489
:1025B00081D90344EEF4FB430B10FA4378A1FF43A7
:1025C00014F70144D417FD4308AAEA43D52DDD438F
:1025D000D110E2433087EE43F4ADEE4353C1DF4305
:1025E00054BBCF43B44EC84345BBCA43F1C8D343E1
:1025F000E929D9431B42CF430D3CBA4319D7AB431A
:10260000DABFAC43892DB5433BD9BC439C2FC143B2
:10261000EF85C04323B9B94390CCAF438DA9A44300
:1026200046ED9A434DCF9943C2C2A5433A15B543EF
:1026300036F8B9436653B4439E08AD434012A843ED
:102640009928A64301FBA8437A4FB0439B6BB9433B
:1026500076D2C443ACAED1432941D84343FDD243E3
:102660005EBAC94319C2C7431704D0438F56DF432C
:102670005921EE43AED6F043F74AE2431B64CF4301
:102680006536C8438AB3CC431087D54387FBE44300
:102690006FA4FD439C580A44C2740E4492490C44F2
:1026A00019F9084481AA0744C3530A44D2131344B6
:1026B0005CF61E44AD6C2644B0BB25449E8E21447E
:1026C000DF442044E51423441E702744F9F52A44CE
:1026D00053992C448C232D4410332E44414D3044C7
:1026E0003EED304477452D44B0BB2544250B1E44B8
:1026F000C3261A44DB351D441A6028446AEA37446D
:10270000A5B443448A384544D5FE3D44FD073644CC
:10271000407F344448AE3A4469EC4344D1A04A4433
:10272000A0A74C4490FB4B4431154B44CF014B4484
:10273000A6674B448D8A4C4459E14E44B527544416
:1027400079405C4458E66244C27A61442B2958447B
:10275000A5774F44CBE44F44D9F458447A046444F9
:102760007FF56A449B206D44AD9E6D44785670445D
:102770001553744498C375443BC07444555D774405
:102780000A448044AB9185446C4988447B28894441
:10279000D5DC8A4412768E44F53A924438AB9444A0
:1027A0009ED6954423F796440FD1984423B79A4474
:1027B000040C9B4420889944B8AC9844346E9B44E4
:1027C000EF67A1446053A644A3AAA6448C5CA3442B
:1027D000CEF39F44869B9E44CBB39E44AEA79E44BB
:1027E00032C69D444C6A9C4409139C445A999D44AA
:1027F000921AA044507BA144B43EA1448D1BA14435
:10280000EA68A24418D3A444FE2EA6445DEBA44477
:1028100094AAA144972A9F44475C9F442B08A14453
:10282000B44FA144C8539F4470169D4485E39C4413
:10283000BE3C9F4476EEA14432BFA14412329E4476
:1028400022079B44C2949C44C4F5A144E961A64478
:102850002D91A644516CA3445AA19F4427D79D446F
:1028600053239F44A700A2449712A3440D24A144DC
:10287000C19C9E446B179E443E459F44DEC1A044CC
:10288000744FA244B2A7A34463B1A3440AD5A144A0
:10289000CFE29F4495A29F4485DCA044BD7DA14426
:1028A00062E09F44D6619C44EE9D99447E749A44B4
:1028B000A3B89E446999A244394EA244AEA79E444F
:1028C00033859B443E4C9B4461489C44DC279B449D
:1028D000ADCC964416A79144703A8F44C6BF8F443E
:1028E0000CB08F446C1A8C4431408644D911824418
:1028F00065B9814413438444D91B86441FE2834451
:102900007FD97A440D246E4435FE69442F0F6F44FD
:10291000CF9D7644CEAD7A442D7377440D246E441A
:1029200063D76444C7796044118F5D44435657446C
:10293000AC1952446642544499CC5944C915584480
:10294000F97D4E449BB64544A5C54344096B4744B5
:10295000DAD04C44043C504495BA4E44DBC0484461
:10296000D86E4144B2423944194130447774294405
:10297000ED542944316E2F44D29B3644D86B3944F0
:102980004EAE35443B7D2D44D3C82644E7842644CF
:10299000A43F2C447F85334470993644D7DA3144C0
:1029A000ABBC264405BF1C44D6541A443AE91D4426
:1029B000292B2144949D1F4469831844752E0E448D
:1029C000167805449AA50244710B03441BB70044D2
:1029D0001F0CF643861BED43DBF3EB43290BF0435F
:1029E000F9D1F5433488F9430F4FF5432BA7E7435B
:1029F000FC68D943DA6DD44348DDD9439F57E0439F
:102A000008E7DE432101D243B60CC043EEC2B44313
:102A1000EDC1B8437FF1C643DB4CD043FCA6C943AC
:102A2000B1E8B8432F75AF43F79DB643BE2AC643FE
:102A3000B90CCF430C42CA43C6A8BC433894B14337
:102A4000E221B3435D18C243B84FD3438078DA43E1
:102A50005CD9D543C30ACD431640C8438775CD43DF
:102A6000537DDF4337E8F84377CA0544D76006440F
:102A700093470044F98DF5431BCEF643F05B0144C8
:102A8000AC050744CD4008442B560544C51102440B
:102A900040F10044D68F024477CA054417490944DF
:102AA0007BCC0C442A471144C2771644ED8119446B
:102AB0006CD21744AB181344301810446F501344B1
:102AC000066F1C4471A426440C022B448233274415
:102AD00046791F4413BC19443C891944BE091F445C
:102AE000563928441952304432613344D52A32448D
:102AF000DF4A3044F8052F44FC652E4496F22E44FC
:102B00009F1131444A7D32445E5B324482F6324446
:102B1000D6FB3544B4E138448CE6384408D7374412
:102B200060DB39442C644044DE204844053D4C447D
:102B3000E4DF4A4494184744AEE445444C91494488
:102B4000C94550447F2F57448ABE5C44029260447A
:102B50006E636244BA0A6344EF4564441E9F664450
:102B6000EE66684427BE68445DF969445A7B6E444A
:102B700062AA7444B0C1784448EE7944C0A0794454
:102B8000740A79449CF47844695C7B4459298044F4
:102B9000E25082447E8D8244357F814412AB804472
:102BA000EAAF80444A4C8144BB2D82446749834448
:102BB000592284447F568444D34B834436578144FE
:102BC0001CC57E4413A67C4405997B447D187B4438
:102BD00029237C449E198044129C82445AFA8344DF
:102BE000B63F834402BD8144762682444E4C8644DF
:102BF0000D8F8B440F0E8D44B7DF8844F8BE83449D
:102C000099228344B54F874481E78B4446E88D443D
:102C10006DD28D44356A8D4484388D4426638C444E
:102C200030618A4408868844357189449FBC8D444C
:102C3000582692449C559244D8358E44D34C8944AE
:102C4000FF6686440D7D8544135C8644BF578944E6
:102C5000E0838C44FF3F8C442AA28744E17882447D
:102C6000D6BA8044DFD9824462528644E162884405
:102C700003A78744061685448F448344852D8344E7
:102C80007C1683440E7381441E867E44A1D57B440A
:102C900007277B443FC27B4448E17D44A830804401
:102CA000DBFD7F44F7697A44785670445ED865440A
:102CB00078836044BD6A6244BC9C664431BC66440F
:102CC000212E624424AC5D44174F5C4485E15D4491
:102CD0004FE96044B7CC6344EA35654477A4644463
:102CE000D087624407915F44EB325D448ABE5C4406
:102CF0003D785C4462145944F53E5344AF974D44CB
:102D00005362484422774244ABA33E442FB33F442E
:102D1000F9BA4244FA6A4244AC423E44B4D0384420
:102D2000FC253244D0392B4403F42844E4272F44B3
:102D30003DF03844C1313E44F17A3C44C8BF384488
:102D4000E76836447C4734447AC63044E7872E44EB
:102D500016143144454F3744B9B13B448A4739448E
:102D60007ED62F4464362544D9B72144899129441D
:102D700036813644005A3D442C83384426B02D44D5
:102D80004B6A264435CB264486422A446E152B4492
:102D9000C659294486532A4483D52E44FEC431445F
:102DA000B9EE2F44B67E2C4485922A448B63294485
:102DB0001B1028441971284489B329442BEF284457
:102DC000382B2644B78C2444A1ED244452F72444E4
:102DD00091302444B5CB2444430B2844CF892B4461
:102DE000BFBB2A44CB482444A1FB1C44C1871A44DE
:102DF000D2051B44A4791844D1631344159C114493
:102E0000204913448ADD114497480B440799044430
:102E100037E20244D40007441F890F44B51919440E
:102E200073621E44EDA21D44210D1B4493DD1B441F
:102E30007AE22044E6E52644EA052A4403E32844EE
:102E40006397254481512344728322447283224430
:102E500047392344DB272544E296274410512A446E
:102E60008A732D444C0C2E4488E129448F802444DD
:102E7000652525442F0F2C44D7C931440125314401
:102E8000D9582D4453BB2C448E9330447AA83444F3
:102E9000C3EF3544BA7F374473DA3D446D0C474481
:102EA0001BA94B44633049449E2745445D3E46443C
:102EB000CA134C44FA3D5244FCCF5544827E5644DA
:102EC000C2A65544F03F5444B7D753449C6C554474
:102ED0003E685844361A5A44166D5844272B5544B8
:102EE0005752534442A753441BAC5344D6B35144A6
:102EF00024D94D4433D64A447DCD4B44000F514430
:102F0000744F5544A709534490D94B44BC024744DD
:102F10008CCA484495BA4E4459025344CF15534481
:102F20003628524414EC544480115B44F5125F443B
:102F3000CFD85E44ADDC5D44D0B65E44F01360444F
:102F40005FB7614410706544752669445E986944B2
:102F500060486944F8566E4417F67744DE4C7F4467
:102F600086EC804479AE81442B8183445C73854434
:102F7000763086445C9B8544A67984443DC6834470
:102F8000DADA8344A4F1844441E68644FE96884418
:102F9000A8118844D77A84443EE37F4443EF7A44BF
:102FA0008DF77B44DA098044D00B8244B5568344C4
:102FB000039D8344FF6D82446D2F80449CC57C44F7
:102FC000629C7C4419767F446F978144BEA68344FB
:102FD000FA4E8544E0CA84442D1881446F0B7A442C
:102FE00019957744E28B7A4421D57D44438480440B
:102FF000FB35834496B3854434A0854441ED824437
:1030000039A68044EAAF8044757682443B278444E5
:1030100069D984443717854438C78444F12F8344E1
:1030200073E68044B0978044411583446F90854493
:103030000A1D8644F6278644086D86443717854462
:103040006309824462518044B06F804445927E445B
:10305000FE077944DE7C77442BE47B44E1BD7E446B
:103060002E337B441F447644E36A76446CAB7A4447
:10307000BD117E4486597D444B5F794413B474443A
:1030800027C17044E5176E4421F16D44ED977044FB
:10309000F417734486857144EF376C447D6367444D
:1030A0009C2E654488226544878365443A1B6544A9
:1030B0006E856244BD995E4452675C444D685D44D0
:1030C000B94A5F445B755E441EDC5A44F470574451
:1030D00001E05444B8C74F44AF944544593D3B4484
:1030E0003DF0384417A840440BDB4A44A7384F440E
:1030F0007B2E4C4427474544E82C3E4465EB38443E
:10310000E2693744E9FA394423343E44B572404415
:10311000A1A540442C644044FF873D44641A3544D3
:1031200007142C44B67E2C44D6FB3544F6683B4449
:103130008F75344407432844B69920440AB11F448C
:10314000341C23443AAC294457DB2F445E4A3244B2
:1031500086453244308F3344B5AF34445E5B3244ED
:10316000AD802E4477342D44E9482E44E9372E446F
:10317000B76D2C4421CF2A44369C2A440EC32A44DE
:103180004F8A2944465A2744FAD4264452D928441F
:103190000EB22A447FA42B4422A02E448F643444D0
:1031A00008C63744EFC73444E5E82E44324D2B447B
:1031B00024402A441971284466C424448B4F214476
:1031C0007AD12044E36423447C63244446681F444A
:1031D00048261744E2D0134462D419448ED02444C4
:1031E000D8A82D44502C314452CB30446D362F4456
:1031F000D61A2E4423502E44B72D30446C683344E5
:10320000C12E3644ABB136447A863444DD8930442D
:1032100092D22B44DCD628444C3B2A44F31730444A
:1032200083B636449A153A447D073844DCD9304495
:1032300069562844C7382544D04A2B4421A3364434
:10324000B8D23F4433D342442C53404420B33A4491
:103250008DB43444EE0731446A0930443F9D304414
:10326000D53B324474D7354420B33A4428443D44D6
:1032700095F43A44ED393544DD9A3044E1D82F4491
:103280004A7D324412C435440A653744380F364407
:1032900092B333447ED53344DD7B3844F6393F4422
:1032A000B3F44444142949442B774C4448854E4494
:1032B000A5994F44126B514468F2534419EB53449F
:1032C000A7384F44631F4944096B474441E34B44CB
:1032D000E7205244DD2254444C94514442C54F44AB
:1032E000BE755244909C5744E3B25A44C427594493
:1032F0007E5E5344888B4D44705E4E44F45F574469
:103300001B4D5F444BA75D4471115644DFC15344CC
:10331000EF60584427FB5C449C3C5D44B2B95C447C
:103320009AAE5D446A655F44788360443A0B6144B9
:10333000523860446F535E44441A5F44ADAC6544F8
:10334000468C6E44BBAF724454AA6F44CEC96A44E3
:1033500060596944481B6A449B4F6944BBEC66440E
:103360001242654404F163444C8961447D715F44B9
:10337000F0246044E5766244171F64445597634423
:103380005238604494DE5A4405DE5744A13B5C4405
:10339000386B654464686C4483046E448AA26C4450
:1033A000C0BC69443A1B65443E5A60446F535E4456
:1033B00059D65E440281604492316344826266441D
:1033C000A61F674476F46444A7DC624492316344E8
:1033D0008D21644476E36444DDD7674498F36D44FB
:1033E000E45A72442A2170443AFD68443F1A644406
:1033F0004BAA6544A7CE6A440D246E4472976D446F
:103400000C646A4431DE6644393D6544CC596744F6
:10341000A3906B4412236D4470056A44FAF265442C
:10342000D65765449230674426306944F4256B448E
:10343000514B6C44D3C86944260F6544B2AB644415
:1034400092236B448B847044ABFF6D44D3F7654487
:10345000DFA65F44B01A5D444BA75D446E636244CF
:1034600071D76944BE2D6E4458D86A44B85A634433
:103470000FF05D4465845C440FCE5D44AF3B614416
:10348000440C674461086D449F627044F0F76F44D8
:103490008AA26C4490806744329B6244180F604457
:1034A00077C26044E20563442B0E6444D0986244C2
:1034B000034260447D825F4400F3604423CD614455
:1034C00008415F44E5735A44DF925744A07B584457
:1034D000F8905A44E8D35944BDA75644000E5544C9
:1034E000180C5844254B5D44F2B25F445ED55D44F0
:1034F000BA185B445AB55A441C2C5B447542594473
:10350000A21B5444FCCC4D445FD04944F55D4B4470
:1035100023E95144C92658444FE65844D6845544BB
:1035200059025344312953448E2C544465815444E8
:10353000C84454446F90524459034F44BB454B44D4
:1035400087CB494446044B44C4644D4448854E44AB
:10355000760D4D4438D54944096B474491B84744EA
:1035600087BA4944E2404B444B034A44E81E464470
:10357000C1F1414464DD4044846842443123434402
:1035800074BC4144C54041442ED44344F97A464476
:1035900064FE4444B711404441FF3B44594E3B4410
:1035A00051DE3C4447E03E44B7114044E31C3F44F5
:1035B000C9903C440CF73A44CE6D3B446E0A3B4400
:1035C00003C7384465DA384418763C448A683D4479
:1035D0001C933744CA6C30444CFB2D4428602D4466
:1035E000CB292C4472572E44FFB73544460F3B4439
:1035F000668A38441115324426B02D448F612C441C
:10360000EC972D44B23F3144137435447808394463
:1036100029E33C446D1A3F44AB933A44B67D3044B1
:10362000F9D32A44B9DD2F4484983A4411D7414450
:10363000714B424486083E4425D4394479A7384426
:103640009CB439448B363944E9293644E41A33446E
:103650000A4433442C833844847942449E084D44C0
:1036600049455244EC1F5144756E4D4446F34A445B
:103670005AC04A441C3A1644001C1B44F97A46447A
:103680009778464430471D44F53029449B6E1644D4
:10369000E2E42C44C1C727445DF327446CF32C4477
:1036A0006E7449446E744944BCBA4944CB994A4447
:1036B0000E0049449C5E5D44EC1159447F405744E0
:1036C000EC22594443595F44337D6644DC27684407
:1036D0001ECE6244DEC45B448D4D58447A3058445B
:1036E000248B5944E0855B44E9825D440C7F5E4451
:1036F000389B5D442DAA5B4447875A4408705B445D
:10370000270C5D449C4D5D44ECE25C447D825F444B
:1037100031CD66440315704449EF7544601C75440F
:10372000B78F6F44A52F6B4407546B44BE2D6E4476
:1037300079067044B93F6F44CD196B4461166544F6
:10374000D3F8614436CC65445EA86D44905473440C
:10375000733975445F4A754452ED734422B1714424
:10376000ACD07144C16E7544A1F37744EA08754446
:10377000DDDA6F44F7A66E44D07C7244F6A9764435
:10378000BABF7644414D73443C8E7044E60A72449D
:1037900096247644C8DD7744ECC97444D61A714443
:1037A000AF1F7144B83E7344563C7344A8927244B0
:1037B000FBA87544F2597B44AE437D4427C478444A
:1037C0000F8371443E2E6C4405A46B449A417144AE
:1037D0005B3E7A44586280440A448044CC1F7B4458
:1037E00086457544DE89734431C27644FAC979440A
:1037F000A952764459A96E449F806C44A3937344A4
:103800004A6F7D441AEA8044E1BD7E442CC377446C
:103810001DC372447D2673444EEE7444FAD771443E
:1038200092126B448EF267440AA36A4433806E445A
:10383000A1127044BACD6E44E1086B44A3BF674443
:10384000D3C8694401657044374F75445A4B764478
:10385000CDFE764404C877448AA574445F696D44FC
:1038600065476844248069446A386F44023674446A
:1038700053CB7344C18D6D44CFA866449B3F6544D0
:1038800014A16844DF696B44549A6B44A01F6C44D4
:10389000E9666D443D6D6C4475046944F504674404
:1038A00054B8674468966744B2BC644423CD61440D
:1038B00002926044297C6044D8F760445AA762446D
:1038C0008AD264444C5A6544F3836344338B5E4428
:1038D00046C75644B8C74F44F62E4F441FCC5644F3
:1038E0005B57624458D86A4492016B44428B6344EC
:1038F00040D85B44D0955A4472B35D44CE065F44D1
:103900006E925E44B9395F44BD885E44A06A5844F3
:1039100056924F4431264B44ADF84D445ED2554447
:10392000FCB05D447BD25F4447875A44CF04534484
:1039300034A74E44053D4C4449424A44F3BE4B44EF
:10394000969C5244EDB0584441C85744EA805144D3
:10395000DB914C4478CE4C44DE12504464C1504458
:10396000A8174B449CB741442D433C44A7433F44D4
:103970009418474465B14C44760D4D4433C54A44D0
:10398000887B4944DBAF484435654644CF204344F7
:1039900038D24144F55A4344D35146448A2B4944D2
:1039A000BE944A449B87494445334744EACE454444
:1039B0002C464444CF4F3F447D1838446769344413
:1039C0005D5A3644E9E93944F9D93A4474A839448E
:1039D000551D3844E33B37440616384408A83B4499
:1039E00091E83F4464DD4044C46F3D44144539448C
:1039F00091D43744D86B3944C6303D44D85D4144F6
:103A0000314543440F2742445E3F4244F63C47441D
:103A1000760D4D447A5C4C44EABD45441CA73F44B6
:103A2000D0EE3E44CF20434428F648441BA94B44E3
:103A3000CBD047443DF3404478D93C442BA43C448C
:103A40009C963D447E983F448E594444BCD34A449E
:103A500002AE5044A1495444F38E53445D414E4458
:103A60009FE7484451B24844EDED4C44983B5244E2
:103A700094FC5644D5A55944A07B5844257B554415
:103A8000739F554400DF5844E3D45A44AB395A4439
:103A9000621459448D5E584495AC56447BFE5344A1
:103AA000B04651442B37504433C85244A21A5844AC
:103AB00068D35B440BD05A44518558444C865944D2
:103AC00064955C4414DE5C449B7C5944FB1F564463
:103AD0005EF4554407B0574405005844F06154441F
:103AE000F98E4E447F5B4B44879C4D44493452448D
:103AF000968B5244879C4D444E6349446F8D4A4493
:103B0000839D4E448FFA4F440FEA4D44DD1F4C44D1
:103B100073AD4D444AF551449A9A5544F7BF564403
:103B200046B656448FFD574439585944C6D7584471
:103B3000079F5744EA615944D1775E44EA356544AA
:103B4000328D6A44F6C46A448C606444C3595D444F
:103B500071145E4422FF6544ECD76C44ABFF6D44A6
:103B6000A3906B44B43D6844FF13654406A16344CD
:103B7000B7BB634479326444FF02654406836744FB
:103B8000261F694459B7664470246244A62D5F44D9
:103B90000C7F5E44D4D75D44FFFF5C44FF215D444D
:103BA0007F325F44F1D36344FC84694475E66C441E
:103BB0002BDE6B44296E684414E16444D58661446D
:103BC000E4945E44876F5D445B755E4454E85F44F3
:103BD000E2E45E44A70C5B44E3F2564471005644B1
:103BE00043565744206B564425885144135B4D443B
:103BF000BB054F44D6845544982D5A44EDD25844C1
:103C0000BE755244B1254D4450D34C446172514469
:103C1000222C5644A719574446E55244DB914C44A4
:103C2000F3ED4744AAA646447E9B4744630E4944AD
:103C30006FAF4A447B0C4C44A1574C44A9C74A443B
:103C4000A75747447F7A4344764A4144766C4144BF
:103C500060CD414464EE4044F13A4044EB9C414421
:103C60007DDB43449C884544E5CF4644CBF2474442
:103C700058614744680E4444E5DD3E44A8223B4475
:103C80007DE93B44770B414473BB454481EA46449C
:103C900081EA464451B24844A9B64A4457824B444B
:103CA000185A4C44DAF24C4434864A44D2A1464471
:103CB00073DD45442C4548449B9849449D484944FC
:103CC00072FE494431264B441E094B440F2A4A4494
:103CD00072DC4944755E4944D921494493394B44C7
:103CE000AA984E442D0950440AEB4E44C0154E4448
:103CF000F7CD4E4467105044EF905044B6F54F4412
:103D00004A244E44DFCF4B4447B44A442EC64B446A
:103D10001FDA4E441B8A5344B04959446C045F4433
:103D200080E1624417306444107065443C8B684401
:103D300067C86B44E1086B44ADCE6544C907604475
:103D4000271D5D4461355D4422FC5D449DFD5C445E
:103D50004AE75944302857444FD5584408305F4407
:103D6000E47566445DE8694403236844F6E362440D
:103D7000C7975C44E4A25644AB5852447040524446
:103D8000B95857440FDF5D443F0A6044172D5C4427
:103D90004E26554430364F44DC804C443CE44C4481
:103DA0009C584D441BBA4B44C1E34944846B4A447C
:103DB00031154B44F3CB47444E60414415273D44F5
:103DC0001E463F44A9E54644A7384F446F7F5244FE
:103DD000BA664F4438D54944AEE44544309543442F
:103DE000D1D042448B0A45440F194A44D3324E4441
:103DF000134A4D445AEF464410063E44780839446D
:103E000040603C44758D454455C14B4498384A4404
:103E10007A7B4444D90D4144AAC442446D1D4744B1
:103E200087CB4944A0A848444D8145447F69434419
:103E30004B114244F64A3F445BDC3A44E33B37448F
:103E400096E43644AFE239445F1E3E44A1944044B8
:103E5000B8E33F4485583E4457AE3F448D984444B0
:103E6000E67E4A4422184E4469D14F44EA6F5144D9
:103E7000BA3753443118534450E35044A7494F4490
:103E80009D3A5144F60F574480E25E4463C6644451
:103E9000254E65447A116044ACE95944F45F5744B7
:103EA0009ECB5844173E5C44C7686044D9A664441E
:103EB000DC2768447FE46A44BE1C6E449703724466
:103EC00026D17444ECDA7444F4177344599C724458
:103ED00039FF7444A2A377448096764433517244E8
:103EE0001B536F4420127244AD7279444384804462
:103EF00063098244FEB58044A1B37B4432727644A8
:103F00003EFE7344BFBE75441A557B4426788044F8
:103F1000AEE7804410687D44421E7744FBB571448F
:103F20000B746E441CF26E4444CF724421D275442B
:103F3000645A7444C73B70442E606B4428AE64449A
:103F4000B7C95B44D324564428FC5844D5976144F0
:103F5000CACB6744FA1466440FF05D4478C05444F9
:103F6000BA664F44CBD34F44174C544415CE5844F3
:103F70009EDC584482AD5244B8D54744FDF93D44D7
:103F8000E4EA3A44062A4044680D484498494A44C1
:103F90003F63444482E83A441A3434448634324419
:103FA000B8FE33447D1838441BB43B44B9A03B44AD
:103FB00091F637449E4335440E753644F0BA384482
:103FC000DD6A3844E83A3644E929364490353844C5
:103FD000A40238440CF4324419812C44A93E2B44E9
:103FE000C55C31440CE63A443DF340442D03404463
:103FF0009CC5394470B7324495532F4427923144BD
:10400000413F384483973E4481F83E441CB53744D1
:10401000279F2D44A37F28442A102D44633B394415
:1040200088AA4544F8AC4A4434A4464408B83F44FE
:10403000497F3E44895A454435574E441C3A5344BF
:10404000B7C6534444355344D414524432084F4401
:10405000797E4C4446C44E44FE5D554485FF594428
:10406000298A5844DFE35344753F5144C6E5504420
:10407000DE015044E9C04D447A6D4C44622F4D44FA
:10408000D2934E4447B34E444A134E4481DC4E44CF
:1040900038B651446581544406BD5344A5994F44F4
:1040A000185A4C4421794E44DFE3534446C75644E2
:1040B0008BCC5444E5925244B2D854445DF35944F5
:1040C0007B015C448BBF5844270955446EB156446C
:1040D000352A5E44B2AB6444C8286444B02B5D44C6
:1040E000842E564455C4534476215544BBE6564469
:1040F000DFA35744CE3657444E26554487AC51442F
:10410000940A4F44BA554F4436285244119D5544A1
:10411000A06A5844AF5A59447D7F57442F6853448E
:104120008CAB504439775144041E54448C8D544414
:10413000AC0852441C7A4F448FFA4F4459025344FE
:10414000FE7F554425595544A20A544440F7534430
:10415000272B5544B4775444EA805144DE1250442E
:10416000050D5444BA295B4419BF5F4418206044CC
:10417000F01360441DF06244CAA9674469566B4459
:1041800026DF6C44A0306C444D1A6944EF4564440A
:10419000518860448D5060441ECE6244174164448F
:1041A000F422634423CD614464656444CD196B44B7
:1041B000D56A7144CEDD7244CA9B6F4462C96C44B7
:1041C000472B6E44A7D17244A9417644A7A27644F6
:1041D0005A4B76443AF2784456FF7E44B9B682444C
:1041E000D5DB8444C7C58544803686441D4B864450
:1041F0002729864401178644F54F8644314086447A
:10420000A3198544984A8344EEEF814420C9814430
:104210008A2C8244094C824464D08144DE1081445B
:10422000A68080443A7E80447CFD8044E5B0814491
:10423000F62E8244BA66824461818244EAB782449F
:1042400007D5824476268244896380444C1F7D448E
:10425000EAFA7C44F5768044A68882440974824454
:104260009D69804437417D445F5E7D44D9318044FF
:10427000E68881444A24814488097D44AB0276441F
:1042800022D37144E1E972441B237744B9027B4491
:1042900010577D4435B37D44A5247B4485B77544D0
:1042A0007856704470F86D4496216E44E4676E440D
:1042B00044DC6E44BD3D72445B3E7A449FF98144C8
:1042C000983B854464DA85445C8A8544A4D186445D
:1042D0006EEA8944A66B8C44436F8C44191D8B4451
:1042E0004E568A44D9038A4411C5884406F686444A
:1042F000755886447A5F8744EC518844E59A874430
:104300001284864481EE8744436F8C44A4B4904465
:10431000D4EE9044705A8D4462238A447E7F8A444E
:1043200082B08D44E07C9044658C9144761B92442D
:10433000524F93444F00944437CB9244B11A904467
:1043400003808D44451F8C4446F78B449ADD8C4492
:10435000E23B8E44A2248F441B8D8E442FA28C44BA
:10436000D4158B44EEC18B444D778E44D277914463
:104370007BFA92447A22934429B59344752B964450
:1043800070459944A07F994478B3954485F890444A
:10439000F2F28E442A948F4459F68F4400318E44B1
:1043A000BF378B44BDA789442C128B4442B08E4446
:1043B0004E209244D17F934468F492441C5E924410
:1043C0006E9493441FB79544574796442666944489
:1043D000754392446DF391442A8D93446E9C9544A9
:1043E000FCC29644C2829644D0C09544F7BB954423
:1043F0007E6A964454D09644893196442DF594446F
:104400002655944400EA9544E6369944040C9B44AE
:104410008D5199449D269644981F954490C096448A
:1044200090B198442A6699440FF99844BBFB97448D
:1044300043529644EDDB934438B290440D6F8D4463
:104440000E568B44C8768B44DC5C8D4408708E44D9
:10445000A8F38B4431518644356E8144C1158144A3
:1044600073B7844479988744846E854488E77C4494
:104470005F696D445597634418FE5F4480D15E4484
:1044800085E15D44220D5E4459D65E4440E95B44BB
:104490005D2352448A3845444A2F3E4474BC41440B
:1044A000A8284B44D76351448D6C5044F20E4C44C1
:1044B000852C4A447F6C4B443F444C4497884A4483
:1044C0008CCA4844C5434944BB234B44BCF54A44C9
:1044D0002FA547445C6D424410063E4428553D4498
:1044E000681B4044E4ED4244BB5343440A28434420
:1044F0009297434450104144C89D384420F02E44C4
:10450000DDA72C44DC9934441C853F44E4DC424460
:10451000A2733C44B0C13544A7623744D29E3E44A6
:104520008E4844449D374944131B51445B94564480
:104530009D295144E4ED4244DBDC38440C083B4403
:10454000803B43443C034544FA993E447C283C4428
:10455000C97144447A5C4C4424E74544CB3D34441F
:104560000DD026443ADB254421CF2A4490622844CA
:104570005306194423E6064442A100440E19074499
:1045800062110E4413F90D4423C80A44D6810A442B
:10459000032B0D44E2000C449C66024496D9E94387
:1045A000679BDB431A48DF436A01EB434007FB4349
:1045B0007E5B0844E60F0F44FD9A06445D9DDD4393
:1045C000F63FAF438D87A443123FBD43EA08D5436E
:1045D000AA50CA43B665A443D3D9864354678843D7
:1045E000DD7EA043D4C2B943D8E5C443D687BD43DA
:1045F0007C0DA84307148C43297B6743A37E524359
:104600004C715843BA025E43844851438E254B4354
:1046100017F96243E0F38343D4378E43DE358C438E
:104620007C8180439F466343035C5B43453579430C
:1046300029319143187394432ABD7E43A73E4243D8
:104640001E861E438B1724430BB1454312966F43BE
:10465000EBD7894378279143240D8A43C8ED7E43E5
:1046600012F18543C7A2AC43E850ED4301BE1144AB
:10467000C8551144F8EBED432E7BBF43479BC24323
:10468000B252E0433F88EF43A336EB436780E743F2
:104690003F88EF4380080044605E064480DC0B44A2
:1046A000913E1C4412A639443F444C44BEC03E4493
:1046B000EE631D446B3E0844D2310F44E8772A4430
:1046C00077FD4844967D5A44A71A534417943844BA
:1046D000F5B32744FDE5354406BD5344D66865442B
:1046E000CEC96A4462D97044EA197544A6E272449C
:1046F000A3A06F4467B76B4468C5634446B95E4482
:104700006DD5624481946A44E3AA724444C07E44F5
:10471000AB588544ED108644B64E81447FD97A4427
:10472000EC5F804414058A44752394448781964441
:10473000C0288D4494667E4444F076449EFA8744B3
:104740008D629944877DA244482DA3446E87A1447D
:10475000CE1BA0444D3BA044BA1FA4445DC4AA4450
:104760007C6AB0448C38B14413F5A9443F0B99449A
:10477000A2528544725A7944487587447A2D9D44E3
:104780005A55AD4470DAAE449653A544083B9C4458
:104790003CB59D44BA07A84445B8AF4489BFAF446F
:1047A0002444AE448191AF440239AF44296AA744FE
:1047B000478399444E4F8E44D76C8C44E07C9044A0
:1047C000AA84934423ED9244DC648F44977D8D4406
:1047D00014E89344DAA19D44BE5C9D4477EC954473
:1047E0008AFA9744D5A3A4449B2DAC44A981A5443F
:1047F00074739444DADA8344D5E28044FE719044C1
:10480000610BA844B32CB5449CF4AB44E8D4924467
:10481000E00D7F449E867C44002E8644567D8E4467
:1048200099F098442568A0446A669844B216824478
:1048300016706044AF3E6944B3A28F442444AE4432
:10484000FB94BA447C99AC447E708C44B3AC604415
:10485000FA146644BB1B964452F9B6448A81B544A7
:10486000DB67974449EF7544AF307144AA7C9144AB
:104870002A34AF448B61B7445B63A5447DA78A4467
:10488000C16E754493E67644EC3F82446C488244A2
:10489000DDCC7744E6186A445D3356440F573A44FA
:1048A00001652D4449504244A97E6A44C3A582440F
:1048B00011187D4454D45744C63E3544BA90374409
:1048C00063C66444306B8E443F449944DFCB8A44D2
:1048D000B00C65442A884C448C6E5C44500382447E
:1048E00043799044DD1B8B44B1CC684485473E44FA
:1048F00009B63344BEB342441EEA5244037F5444D3
:1049000035544644358E324410412644383C2644C2
:1049100091222C44C05D3244578D3B447F8B4344ED
:10492000675B3C44BD3A27443BAA1D44CDD92B4488
:10493000587C3B44E869324475FF11445520E343F9
:10494000F0EAD343B482014480A123442792314446
:104950004F872144EDBB0544FD10F14324C50244BB
:104960005B54174466E62444B6AD2844E2852744E8
:104970008B4F2144E3AF0F449458E64350B4B44303
:104980009FC5A84307C1B743914BBB43C2C2A543D0
:10499000636889437FAF75439F628D437516C54336
:1049A0002DEAFA43F60A0044F18BDF43BE08C64302
:1049B000C269C143A210C443D728C943DC09CC4310
:1049C000ACECC143828FB64389EFC443821AE24301
:1049D0008CF6DF43CBC5B74309799F435C32BA43BA
:1049E00034A4E9438E62FF4348C8F543AD57E5431D
:1049F00016E7E343F3F0F243EDF3FF439D5BF84327
:104A000061BAD843C881A843AD676C43B9973A43AC
:104A1000C0C25C43C63E9543C004AE436DF1B24391
:104A20007CF1B743A52CC3430EDEC143B8C4A743F2
:104A3000B4F984435890694344CC874360B5B54387
:104A4000FC68D943C0ABC94375A68D43C1FA3C434A
:104A500008964243422984437F6DA743C0C6BD43A5
:104A60006953C3436135BD43A12ABC438C4FC44342
:104A70003CBEC8439EAFC84327E3D04317E8DF439B
:104A8000D031E64366BCDF437916D443D649CD43E3
:104A90009A33D9438BBEFF43239B1A4452BA304406
:104AA0009E5339442AE1304450551D443018104477
:104AB00099BB1644E1D52744A28F2C4457F71F44D5
:104AC0008B9D15440FB01E447ED5334482DA424498
:104AD000095A474463DF4C4404105C4408256F4482
:104AE0002CB27744DA8B70445568674458BA6E44E8
:104AF000321F8244D69B88448E7B8144F7B15E444A
:104B000069FA3B44456D33446A8E4B449542724486
:104B100054148744B6208B4495D4894477E887445D
:104B2000CCB5864423028744E21A8A44BE698F4486
:104B30004D50944401C295448FE7904411BD864482
:104B4000E6CD7D4436468144F6398C44DC3F9744BB
:104B50002DBF9C4421209D44DD109B443BE499449F
:104B6000EB2E9C44832CA144E06AA444CC5CA24478
:104B700061209C449D269644E5749344C868934400
:104B8000D80E9444531895448E109744BCB399445E
:104B90008C6A9B44FF239C4458FA9D4463A9A1441A
:104BA0003388A344B037A044124A9A442CFD96445B
:104BB00013099844A3BF9A446DAE9B44D0B999445D
:104BC000E7F596446C259644F89B974481C3994435
:104BD000C35B9C445F91A0448815A64492FDA94400
:104BE0007940A944909CA44422F1A0441B6AA244A9
:104BF000D8D4A7447781AB44A8A2A9448EECA4449E
:104C00009224A44452FDAA443BB3B5442BAFBC4408
:104C1000BD1CBB444739B344FD40AC4462DCAB44EB
:104C20006CA4B144CC19B8444F8AB9444FA0B344E2
:104C3000D14DA9445A92A144877DA2444AAFAC44C5
:104C4000EA16BA44E858C244F746C1449B78C644C1
:104C5000756BC0443F5AC14463D0C9440C9ED444D0
:104C600010C70F455DC100457468EB44783DD444DE
:104C700001D3C3445391BA44EBBFBD440074BB4459
:104C8000FC62B6442CBDB444A2B6B64412F1B5449D
:104C90007C79AE44786FA544AF58A44400A9AD44D4
:104CA000C642B94420E8BC44B694B6447911AD4438
:104CB00014C5A744DEB3A84471D2AC44F19AB04401
:104CC00085B1B244ECB4B34444C2B3445E9DB04435
:104CD0000826A844C2949C440D6195444B9998447D
:104CE0008AACA344CC56AC44C5BFA9444AF39C4407
:104CF0007A518F4415DD8944DABD8D444C78944453
:104D00008FF9964453279344E15B8C44976B874417
:104D1000E2498644C2C686447B2F85448E53814433
:104D2000FD287D44686C7F44FDE58244E4F18344C2
:104D3000BF658144BBA17A44AE40754426F37444F8
:104D4000C5B0784483F97D44E0D18044445C80441C
:104D5000E93A794426F06C445A966244A99D62442B
:104D600021026E442D727B4483F97D442960704496
:104D70005AA45A449AB94D44FE7F55448FC36B449C
:104D800090467B4475C77444DFA65F443DC65044DB
:104D90001BAC53443E6B60442E8F67447362614486
:104DA0005AC35244E8FC454425B541445441444467
:104DB000CE5247445D4F464427654144CB1E3C4498
:104DC0005C9D3A444DA03D44012B4144F13A40449E
:104DD00009863B441933384406383844550C384466
:104DE0002A02354437603244C3CD3544B8E33F44EA
:104DF0004E4149442B564844F6683B44EE472D4407
:104E000080932B44E0CA37448BF94444E80D464470
:104E1000C39E39447B732844B7891C44866F1A4467
:104E20007C9220443F9A28448F612C44374C2A447A
:104E3000C5882544E3862344BB9B274483D52E4461
:104E40005E5B3244F8052F44E8662A445B092B4434
:104E500030CF2F44ACA132448DE3304414822D4432
:104E600004B42C4413A3314407E73B44D5F0454434
:104E7000DC5F4844764A4144B3103544F275284417
:104E800071A11E44CAB71C449CEE2544538B344484
:104E90000A363B4474D83144AF2A1E44890C0E4470
:104EA00014FA094499DA0E4485DE124469801044EC
:104EB000FE5A0A44EF7C05445B9F0344525105446B
:104EC0006A5F0C447D501844ABEB22448721264492
:104ED0007322224457151C447FEF174484FF164465
:104EE00018CC1844DF731C44A38D2044CF9723446F
:104EF000422924446F23234480A12344FD232644D4
:104F000010412644B1AB2144B5C81C44DB241D44E8
:104F100058D51F44B1C91D4490AD14442DB5084463
:104F20003F28FF43B57BFB432E830444E6200F4418
:104F300054C314449B4A124452430D44F45C0C4441
:104F4000E3AF0F44A12B1544CC451C444728234410
:104F5000B26B25448FAF2044BBB717441F780F4472
:104F600057310C44F93D0F44A47A14443947164490
:104F700080CE1344FFFC114436C61244BC96134441
:104F8000D7231244E6FE0E4452500944CD79FE4325
:104F90000F48E943783EE4431C69F2433F6CFF430A
:104FA0007A5FF7437319E143DB29D443A352DB4310
:104FB00069DEEE433F30014432B40744B53509445D
:104FC00062FD054446D20344A2F60844BBD513440F
:104FD0005C031B4413CD1944B947144437B60E443F
:104FE000CAF10844B61405444AF206443AF40D44A2
:104FF00093DA1344735F1644090F1844EF311944D0
:10500000FBDF1644DED210444BC30A4429A60544F4
:1050100082E3FD433087EE436BE0E64350E0EB4331
:10502000D6D5F4434446F643E291EA4339DDD4430E
:1050300014C0C043884EB943ADCBBD43FD63C543E7
:10504000A390CB43F406D343A6D4DA436D5ADE4390
:10505000CC30DB438236D2434678C6430FBDBD43D6
:10506000874DBD43BFE7C143B849C34393EEBE4339
:105070007474BD4300C3C843EE4DE0439C7DF843C8
:10508000EDEA014416B0FF433F65F3436BBEE643D0
:105090002862DC438B54D843CF8FDE43A9D4E94345
:1050A0004604EE43D053E6438078DA434A9BD1432B
:1050B000A6EFCE438B77D44392B5E24352C6F34377
:1050C00006D1FE43DD1C0144F39900445289FF439D
:1050D0002C0BFF43EB5C02443A340A44F7AE134412
:1050E0004177184414BD15445D120F444BB20A4475
:1050F000885C0E444A961A44F9242744FEE3294466
:10510000D4A7224449E61A4423AC1A44BFC9224416
:10511000E5E82E44D2BD36441D723344D3C826443C
:10512000E8821A44965B1744FE201E449E6F294471
:1051300048DE3244005735442E1F3044A36E2844C5
:105140009A3E2644F3462C4479D6344437413A44B7
:10515000A0E53C4452C0404496C846442B664C44AB
:10516000AF974D44E9EF4944E81E4644680D484472
:1051700087AC5144E8A3614490657344CF538044A5
:10518000F12F83443B27844424FA84447B2F8544B5
:105190002EE9844431518644E22B8A4430438E44C4
:1051A000CA1F8F4489378C4442AF884437E888440B
:1051B0001EED8D44F95A9544345D9B445F989C44A0
:1051C000F2C49844573F9444A7FC9344C1B2984416
:1051D0003CA69F445B63A5447A10A744391FA644AC
:1051E0000837A84461FDAF44430BB8441CF0B944F0
:1051F0008D09B544B002AE44073FAA44DB35AD4447
:105200003424B544374EBC440A7CBD44741DB844B4
:10521000DEA5B0445216AD449CEDAF44D617B6445B
:105220009471BB44A358BE44961ABF44FD04BE44C7
:1052300008DBBB44E1D7B94498B8B844873AB844CE
:10524000776CB744E6E5B644E1F7B744F405BA44F1
:105250004B52BA44B9EBB744B1C4B344728AAE44BA
:10526000483FA94499BBA6449A84A8445DDDAC4458
:10527000A604B044F771AF44E522AB44E961A6440B
:10528000E06AA444E961A6442B02AB44A6DCAF4427
:10529000949FB144644CAF44825FAB442F49A8440F
:1052A0002CE1A644212BA744921DA844ED90A744CD
:1052B000130DA644DB5AA5447E46A4440695A0449B
:1052C0004FCA9B44CBA198442CFD96440A129644A5
:1052D0009B87964444439844662E9944C6C297449B
:1052E00085F19444E65D93443CE39344B1139444C4
:1052F00002A191443E818D44CD758A44A1738944B5
:105300003B288A44C6C68B44ED028E44398A9044B9
:105310001FAD914404388F445D338944F4A6824420
:10532000AFE27C44679B7B44A2A67F4434A78144C0
:10533000668081446268804410687D44C17F754402
:1053400069786B4467F7674420526E44E44C7A44B2
:10535000F9B68144F17A7F4469566B448E3D5444DA
:1053600095E94A4415BA504468D35B44432A6344E0
:10537000BF0962448AFE584458314F4436144A44A7
:10538000EEDD484438E64944C7C44C44EF6E50440F
:1053900052535444D1635644BF36524419284844AA
:1053A00009793F4445703B4452AC3844D1EB364414
:1053B00091F63744DBDC3844FDF63544DF283044D1
:1053C0007AE52844733322447AF3204444EA2344A0
:1053D00062A421442469164446B30B4485DB0A4485
:1053E000D9C21144CEE5174430E81744FAFD1244FF
:1053F000EBFD0D4456810C44883A0E44F88D0F4461
:1054000067EE0C44703D07443033044480FA07448F
:10541000B87610444EE519446953204476C21D44C1
:10542000D2530F440E4EF943725DE143547EDB4389
:105430001488E0434705EA4329E9EF433826E94366
:105440001A48DF43064CE34338E9F4431757014455
:10545000ADE402443A530244CCC00044933BFA43C7
:105460002689F043FFACE843FC2BE543773DE84356
:10547000BB34EE439FD6EB433D00E043E94BD943B9
:105480009CD5E043805CEA43F68DE6432863D8432D
:10549000F5E5CE4389D4D0432863D84366BCDF43C7
:1054A000B316E843FA6CF143D5F6F843DD1C01442A
:1054B00019F908448FDC104405CD1444818E17443B
:1054C000CC561C4474231E4409ED1744F2CE0C4400
:1054D0005B7D0344576E0044A07505449209104457
:1054E0006983184472A21A4472801A44867F1E444B
:1054F00080722744D52A3244BEB03A4451EF3C442E
:10550000CDAD374425E231444F4D3544B3D340440B
:10551000C1D2494467504C4414E94C442A884C4455
:1055200072DC49441D594B444D655544B9395F44BB
:105530003CAA60447A226044E6256644B5DF6F44A5
:1055400066F973441E916E44729465447294654486
:105550006A1A7344C8938144C7E58344CDCE7E4420
:105560009F5170448843694458DB724452A4834479
:105570004E458A4479788944A0A2854413438444E3
:105580007DAE86447C088B446D0B8E4441E98E448D
:10559000F1FA9044C4219644040C9B44876B9C44CC
:1055A000C0F39A44B89B98445FBF964405DA96448A
:1055B000879A984441C39A4410A29C4458E99D4458
:1055C00031FF9D44B7AD9E44B87EA244CEE5A744CA
:1055D0008270AB441B4DAC44D8CDAB444D1EAA44A5
:1055E00076D8A7445DCBA644A972A7443BC0A74484
:1055F000C266A644958CA5441DCBA74494B5AB4484
:105600009EACAD447F01AE44507FAF4404C9B0446A
:105610004C3FAE444806A944AB20A5449C2AA44470
:1056200062F2A5449715AB44A50CB2447D43B64441
:10563000BACAB3443D69AB444276A244D0929F4477
:10564000CD3CA4448736AA4471CAAA449DF3A5441C
:105650002568A0445C219D44620F9C44394D9C44C4
:105660009FA09D44FFF49F4422E2A24422EAA44466
:10567000019EA3440ADC9D44B60B974471249544D3
:10568000DC479944C1BC9C4486C2984429BC8F44E1
:10569000438F8A44BC018E44037295445F9F9844B3
:1056A0005817944451AD8B445C628544DA028444BB
:1056B00031518644C95D89448E5E8B44A80A8C446E
:1056C0007B308B4496A48744F077814461CB784447
:1056D00020F37944A1898344F4988A44540D8B447F
:1056E00081F58344EE397844783874448F86774462
:1056F00077887444EA5669443AFA6044CEF96244C1
:1057000056396B442A107044DF696B44C7686044A3
:10571000DE04584449275644B2E954446B704F4460
:1057200072DC49442F874B4419EB534485105A448B
:10573000B2C7544465AE4444C48E3544E5F832449F
:10574000AAD23A448CD84044AB923E44C2FF39447A
:10575000C39E3944278439449951324422AE2644A9
:1057600045B81F44E8A31E44825F1B44BE35134462
:1057700015A90D44DB721144FBB01A44A88C1F44D8
:1057800062B21944CC720C44C5110244E9BD024412
:10579000F7AB0B44AB0713449FAA114427170A44E5
:1057A0005B9F034412470244339303440CA9034410
:1057B000AF720244D67E0244BBF103446C1D044424
:1057C00003790144B2F9FB434A49F94383A0F94301
:1057D000F9AFF54357E4EA4369FADE435E5AD94329
:1057E00005AADB430F6BE5435361EF431D6AEE43AC
:1057F0004060DF436378D043A84ED243B4F5E3431F
:10580000A19AF34372FDF043B834DF435DDAD1432C
:10581000F765D643E76BE143D470E1432F01D743EB
:10582000BBAFD2432E44DB43EFCDE743709EED4345
:105830003EC4E743DA4AD8430C20CA430222CC4391
:10584000E5EADD434067EB434562E6438156DA43D0
:10585000D54FDD4352A5EF435C87FD43150EF8435A
:105860009E78E443FBA4D1435EBAC9430B85CE4383
:10587000A374DB430E8CE9436B81F2438041F64312
:1058800008B1F643282CF443C8B3EF43F9B0F14311
:10589000043A014439550E447CA0184431B91B44E4
:1058A00000B0194445B5174413DE194409DF1F44FD
:1058B000A29D24444EB92544318D274457B92F4425
:1058C000DC8B3C4496B74644837C4A44FA6D4A4498
:1058D00093394B44EB4E4D446EAE4E441ADB4F446D
:1058E0006642544457555B44A11D604476D36044DE
:1058F000211D6244B79D67440D136E44DDDA6F4489
:105900003D6D6C443AEC684492236B44B35074444C
:10591000A7A57E44CF538044D8BC78449A417144B3
:10592000B1A0744455607F44185383442AA983442A
:1059300041FE82447587824446EC8144FA7D81446D
:10594000BA668244D5038544E0C3884421848B44ED
:105950005FC38A4441F786447717844433C885443B
:10596000BF708B44176E9144262D9444746B9244FF
:10597000AB4A8D4402CF8744C6ED8544985C894488
:1059800005108F4494FF9144623590441EFC8B4473
:10599000B98F8844A18287445FE38844F0498B44EF
:1059A00007A78C44608C8C44CE3E8C44AB4A8D441B
:1059B000001190440BD19344D4D89644E4A6974464
:1059C000606F9644345C95447E539644E06E9844F0
:1059D000AC0D9944E71D9744D74794447F499244BE
:1059E000EF839144CFEF9144BE6293447473944427
:1059F000A09593447CF29044878F8E4494F58D4417
:105A000098358F4424AC90446A8B904409488E4466
:105A1000191D8B4436108944DC638944F1218B4481
:105A2000BF708B447B178944C38D86447580864440
:105A3000DBAB8744D40B87449AEB844401FE834458
:105A40003088844431388444A5B082444F2B82444A
:105A500029D18344BA4E86443B488844177C894404
:105A60002A828944A4C2884487B68844AA8A894481
:105A7000A3238944B14886442ED082446AB8804426
:105A8000C61480444CC3804410EC824416BC854448
:105A9000DD5B874411AC8644E241844451DB8144A0
:105AA000A248814474AF82443F7683442EDF804411
:105AB000506F7844B33F7444ABB1794474968044DA
:105AC000C53C8044505E78448FB573449F547844FD
:105AD000CA7F7F4463188044499E7944FFD670444E
